{
    "contractName": "NameAndAgeContract",
    "abi": [
        {
            "inputs": [],
            "name": "balance",
            "outputs": [
                {
                    "internalType": "uint256",
                    "name": "",
                    "type": "uint256"
                }
            ],
            "stateMutability": "view",
            "type": "function"
        },
        {
            "inputs": [
                {
                    "internalType": "uint256",
                    "name": "amount",
                    "type": "uint256"
                }
            ],
            "name": "deposit",
            "outputs": [],
            "stateMutability": "nonpayable",
            "type": "function"
        },
        {
            "inputs": [],
            "name": "getAge",
            "outputs": [
                {
                    "internalType": "uint256",
                    "name": "",
                    "type": "uint256"
                }
            ],
            "stateMutability": "view",
            "type": "function"
        },
        {
            "inputs": [],
            "name": "getName",
            "outputs": [
                {
                    "internalType": "string",
                    "name": "",
                    "type": "string"
                }
            ],
            "stateMutability": "view",
            "type": "function"
        },
        {
            "inputs": [],
            "name": "loan",
            "outputs": [
                {
                    "internalType": "bool",
                    "name": "",
                    "type": "bool"
                }
            ],
            "stateMutability": "pure",
            "type": "function"
        },
        {
            "inputs": [
                {
                    "internalType": "uint256",
                    "name": "newAge",
                    "type": "uint256"
                }
            ],
            "name": "setAge",
            "outputs": [],
            "stateMutability": "nonpayable",
            "type": "function"
        },
        {
            "inputs": [
                {
                    "internalType": "string",
                    "name": "newName",
                    "type": "string"
                }
            ],
            "name": "setName",
            "outputs": [],
            "stateMutability": "nonpayable",
            "type": "function"
        },
        {
            "inputs": [
                {
                    "internalType": "uint256",
                    "name": "amount",
                    "type": "uint256"
                }
            ],
            "name": "withdraw",
            "outputs": [],
            "stateMutability": "nonpayable",
            "type": "function"
        }
    ],
    "bytecode": "608060405234801561001057600080fd5b50600a600055610478806100256000396000f3fe608060405234801561001057600080fd5b50600436106100885760003560e01c8063b6b55f251161005b578063b6b55f25146100da578063c47f0027146100ed578063d285b7b414610100578063d5dcf1271461010f57600080fd5b806317d7de7c1461008d5780632e1a7d4d146100ab578063967e6e65146100c0578063b69ef8a8146100d2575b600080fd5b610095610122565b6040516100a2919061028e565b60405180910390f35b6100be6100b93660046102e3565b6101b4565b005b6002545b6040519081526020016100a2565b6000546100c4565b6100be6100e83660046102e3565b6101cd565b6100be6100fb366004610312565b6101de565b604051600181526020016100a2565b6100be61011d3660046102e3565b600255565b606060018054610131906103c3565b80601f016020809104026020016040519081016040528092919081815260200182805461015d906103c3565b80156101aa5780601f1061017f576101008083540402835291602001916101aa565b820191906000526020600020905b81548152906001019060200180831161018d57829003601f168201915b5050505050905090565b806000808282546101c59190610413565b909155505050565b806000808282546101c5919061042a565b80516101f19060019060208401906101f5565b5050565b828054610201906103c3565b90600052602060002090601f0160209004810192826102235760008555610269565b82601f1061023c57805160ff1916838001178555610269565b82800160010185558215610269579182015b8281111561026957825182559160200191906001019061024e565b50610275929150610279565b5090565b5b80821115610275576000815560010161027a565b600060208083528351808285015260005b818110156102bb5785810183015185820160400152820161029f565b818111156102cd576000604083870101525b50601f01601f1916929092016040019392505050565b6000602082840312156102f557600080fd5b5035919050565b634e487b7160e01b600052604160045260246000fd5b60006020828403121561032457600080fd5b813567ffffffffffffffff8082111561033c57600080fd5b818401915084601f83011261035057600080fd5b813581811115610362576103626102fc565b604051601f8201601f19908116603f0116810190838211818310171561038a5761038a6102fc565b816040528281528760208487010111156103a357600080fd5b826020860160208301376000928101602001929092525095945050505050565b600181811c908216806103d757607f821691505b6020821081036103f757634e487b7160e01b600052602260045260246000fd5b50919050565b634e487b7160e01b600052601160045260246000fd5b600082821015610425576104256103fd565b500390565b6000821982111561043d5761043d6103fd565b50019056fea26469706673582212208ad4f6e5e3de2b8f5fc63c419c8cf23b6c68f193f8f4b4e9362c01d4ba06819a64736f6c634300080d0033",
    "sourcePath": "/Users/Rutul/Documents/solidity/LearningSolidity/2.SimpleBankingContractToLearnInheritance/SimpleBankingContractToLearnInheritance.sol",
    "compiler": {
        "name": "solc",
        "version": "0.8.13+commit.abaa5c0e"
    },
    "functionHashes": {
        "balance()": "b69ef8a8",
        "deposit(uint256)": "b6b55f25",
        "getAge()": "967e6e65",
        "getName()": "17d7de7c",
        "loan()": "d285b7b4",
        "setAge(uint256)": "d5dcf127",
        "setName(string)": "c47f0027",
        "withdraw(uint256)": "2e1a7d4d"
    },
    "gasEstimates": {
        "creation": {
            "codeDepositCost": "228800",
            "executionCost": "22375",
            "totalCost": "251175"
        },
        "external": {
            "balance()": "2359",
            "deposit(uint256)": "24518",
            "getAge()": "2326",
            "getName()": "infinite",
            "loan()": "221",
            "setAge(uint256)": "22378",
            "setName(string)": "infinite",
            "withdraw(uint256)": "24538"
        }
    }
}