{
	"data": {
		"bytecode": {
			"linkReferences": {},
			"object": "608060405234801561001057600080fd5b5060e38061001f6000396000f3fe6080604052348015600f57600080fd5b5060043610603c5760003560e01c80632b813bc0146041578063357815c4146049578063a26388bb146051575b600080fd5b60476059565b005b604f606a565b005b60576079565b005b60026001146068576067607e565b5b565b6002600114607757600080fd5b565b600080fd5b7f4e487b7100000000000000000000000000000000000000000000000000000000600052600160045260246000fdfea26469706673582212203557b89e641206e24a2a63fede558f8a4b8734aebcdbcfdff2c90ccb059964e664736f6c63430008060033",
			"opcodes": "PUSH1 0x80 PUSH1 0x40 MSTORE CALLVALUE DUP1 ISZERO PUSH2 0x10 JUMPI PUSH1 0x0 DUP1 REVERT JUMPDEST POP PUSH1 0xE3 DUP1 PUSH2 0x1F PUSH1 0x0 CODECOPY PUSH1 0x0 RETURN INVALID PUSH1 0x80 PUSH1 0x40 MSTORE CALLVALUE DUP1 ISZERO PUSH1 0xF JUMPI PUSH1 0x0 DUP1 REVERT JUMPDEST POP PUSH1 0x4 CALLDATASIZE LT PUSH1 0x3C JUMPI PUSH1 0x0 CALLDATALOAD PUSH1 0xE0 SHR DUP1 PUSH4 0x2B813BC0 EQ PUSH1 0x41 JUMPI DUP1 PUSH4 0x357815C4 EQ PUSH1 0x49 JUMPI DUP1 PUSH4 0xA26388BB EQ PUSH1 0x51 JUMPI JUMPDEST PUSH1 0x0 DUP1 REVERT JUMPDEST PUSH1 0x47 PUSH1 0x59 JUMP JUMPDEST STOP JUMPDEST PUSH1 0x4F PUSH1 0x6A JUMP JUMPDEST STOP JUMPDEST PUSH1 0x57 PUSH1 0x79 JUMP JUMPDEST STOP JUMPDEST PUSH1 0x2 PUSH1 0x1 EQ PUSH1 0x68 JUMPI PUSH1 0x67 PUSH1 0x7E JUMP JUMPDEST JUMPDEST JUMP JUMPDEST PUSH1 0x2 PUSH1 0x1 EQ PUSH1 0x77 JUMPI PUSH1 0x0 DUP1 REVERT JUMPDEST JUMP JUMPDEST PUSH1 0x0 DUP1 REVERT JUMPDEST PUSH32 0x4E487B7100000000000000000000000000000000000000000000000000000000 PUSH1 0x0 MSTORE PUSH1 0x1 PUSH1 0x4 MSTORE PUSH1 0x24 PUSH1 0x0 REVERT INVALID LOG2 PUSH5 0x6970667358 0x22 SLT KECCAK256 CALLDATALOAD JUMPI 0xB8 SWAP15 PUSH5 0x1206E24A2A PUSH4 0xFEDE558F DUP11 0x4B DUP8 CALLVALUE 0xAE 0xBC 0xDB 0xCF 0xDF CALLCODE 0xC9 0xC 0xCB SDIV SWAP10 PUSH5 0xE664736F6C PUSH4 0x43000806 STOP CALLER "
		},
		"gasEstimates": {
			"creation": {
				"codeDepositCost": "45400",
				"executionCost": "99",
				"totalCost": "45499"
			},
			"external": {
				"testAssert()": "174",
				"testRequire()": "163",
				"testRevert()": "163"
			}
		},
		"methodIdentifiers": {
			"testAssert()": "2b813bc0",
			"testRequire()": "357815c4",
			"testRevert()": "a26388bb"
		}
	},
	"abi": [
		{
			"inputs": [],
			"name": "testAssert",
			"outputs": [],
			"stateMutability": "pure",
			"type": "function"
		},
		{
			"inputs": [],
			"name": "testRequire",
			"outputs": [],
			"stateMutability": "pure",
			"type": "function"
		},
		{
			"inputs": [],
			"name": "testRevert",
			"outputs": [],
			"stateMutability": "pure",
			"type": "function"
		}
	]
}